{
  "contractName": "SmartContract",
  "abi": [
    {
      "inputs": [
        {
          "internalType": "string",
          "name": "_name",
          "type": "string"
        },
        {
          "internalType": "string",
          "name": "_symbol",
          "type": "string"
        },
        {
          "internalType": "string",
          "name": "_initBaseURI",
          "type": "string"
        }
      ],
      "stateMutability": "nonpayable",
      "type": "constructor"
    },
    {
      "anonymous": false,
      "inputs": [
        {
          "indexed": true,
          "internalType": "address",
          "name": "owner",
          "type": "address"
        },
        {
          "indexed": true,
          "internalType": "address",
          "name": "approved",
          "type": "address"
        },
        {
          "indexed": true,
          "internalType": "uint256",
          "name": "tokenId",
          "type": "uint256"
        }
      ],
      "name": "Approval",
      "type": "event"
    },
    {
      "anonymous": false,
      "inputs": [
        {
          "indexed": true,
          "internalType": "address",
          "name": "owner",
          "type": "address"
        },
        {
          "indexed": true,
          "internalType": "address",
          "name": "operator",
          "type": "address"
        },
        {
          "indexed": false,
          "internalType": "bool",
          "name": "approved",
          "type": "bool"
        }
      ],
      "name": "ApprovalForAll",
      "type": "event"
    },
    {
      "anonymous": false,
      "inputs": [
        {
          "indexed": true,
          "internalType": "address",
          "name": "previousOwner",
          "type": "address"
        },
        {
          "indexed": true,
          "internalType": "address",
          "name": "newOwner",
          "type": "address"
        }
      ],
      "name": "OwnershipTransferred",
      "type": "event"
    },
    {
      "anonymous": false,
      "inputs": [
        {
          "indexed": true,
          "internalType": "address",
          "name": "from",
          "type": "address"
        },
        {
          "indexed": true,
          "internalType": "address",
          "name": "to",
          "type": "address"
        },
        {
          "indexed": true,
          "internalType": "uint256",
          "name": "tokenId",
          "type": "uint256"
        }
      ],
      "name": "Transfer",
      "type": "event"
    },
    {
      "inputs": [
        {
          "internalType": "address",
          "name": "",
          "type": "address"
        }
      ],
      "name": "Aucwhitelisted",
      "outputs": [
        {
          "internalType": "bool",
          "name": "active",
          "type": "bool"
        },
        {
          "internalType": "address",
          "name": "winner",
          "type": "address"
        },
        {
          "internalType": "uint256",
          "name": "numeroNft",
          "type": "uint256"
        },
        {
          "internalType": "uint256",
          "name": "precio",
          "type": "uint256"
        }
      ],
      "stateMutability": "view",
      "type": "function"
    },
    {
      "inputs": [
        {
          "internalType": "address",
          "name": "to",
          "type": "address"
        },
        {
          "internalType": "uint256",
          "name": "tokenId",
          "type": "uint256"
        }
      ],
      "name": "approve",
      "outputs": [],
      "stateMutability": "nonpayable",
      "type": "function"
    },
    {
      "inputs": [
        {
          "internalType": "address",
          "name": "owner",
          "type": "address"
        }
      ],
      "name": "balanceOf",
      "outputs": [
        {
          "internalType": "uint256",
          "name": "",
          "type": "uint256"
        }
      ],
      "stateMutability": "view",
      "type": "function"
    },
    {
      "inputs": [],
      "name": "baseExtension",
      "outputs": [
        {
          "internalType": "string",
          "name": "",
          "type": "string"
        }
      ],
      "stateMutability": "view",
      "type": "function"
    },
    {
      "inputs": [],
      "name": "baseURI",
      "outputs": [
        {
          "internalType": "string",
          "name": "",
          "type": "string"
        }
      ],
      "stateMutability": "view",
      "type": "function"
    },
    {
      "inputs": [],
      "name": "cost",
      "outputs": [
        {
          "internalType": "uint256",
          "name": "",
          "type": "uint256"
        }
      ],
      "stateMutability": "view",
      "type": "function"
    },
    {
      "inputs": [
        {
          "internalType": "uint256",
          "name": "tokenId",
          "type": "uint256"
        }
      ],
      "name": "getApproved",
      "outputs": [
        {
          "internalType": "address",
          "name": "",
          "type": "address"
        }
      ],
      "stateMutability": "view",
      "type": "function"
    },
    {
      "inputs": [
        {
          "internalType": "address",
          "name": "owner",
          "type": "address"
        },
        {
          "internalType": "address",
          "name": "operator",
          "type": "address"
        }
      ],
      "name": "isApprovedForAll",
      "outputs": [
        {
          "internalType": "bool",
          "name": "",
          "type": "bool"
        }
      ],
      "stateMutability": "view",
      "type": "function"
    },
    {
      "inputs": [],
      "name": "maxSupply",
      "outputs": [
        {
          "internalType": "uint256",
          "name": "",
          "type": "uint256"
        }
      ],
      "stateMutability": "view",
      "type": "function"
    },
    {
      "inputs": [],
      "name": "name",
      "outputs": [
        {
          "internalType": "string",
          "name": "",
          "type": "string"
        }
      ],
      "stateMutability": "view",
      "type": "function"
    },
    {
      "inputs": [],
      "name": "owner",
      "outputs": [
        {
          "internalType": "address",
          "name": "",
          "type": "address"
        }
      ],
      "stateMutability": "view",
      "type": "function"
    },
    {
      "inputs": [
        {
          "internalType": "uint256",
          "name": "tokenId",
          "type": "uint256"
        }
      ],
      "name": "ownerOf",
      "outputs": [
        {
          "internalType": "address",
          "name": "",
          "type": "address"
        }
      ],
      "stateMutability": "view",
      "type": "function"
    },
    {
      "inputs": [],
      "name": "paused",
      "outputs": [
        {
          "internalType": "bool",
          "name": "",
          "type": "bool"
        }
      ],
      "stateMutability": "view",
      "type": "function"
    },
    {
      "inputs": [],
      "name": "renounceOwnership",
      "outputs": [],
      "stateMutability": "nonpayable",
      "type": "function"
    },
    {
      "inputs": [
        {
          "internalType": "address",
          "name": "from",
          "type": "address"
        },
        {
          "internalType": "address",
          "name": "to",
          "type": "address"
        },
        {
          "internalType": "uint256",
          "name": "tokenId",
          "type": "uint256"
        }
      ],
      "name": "safeTransferFrom",
      "outputs": [],
      "stateMutability": "nonpayable",
      "type": "function"
    },
    {
      "inputs": [
        {
          "internalType": "address",
          "name": "from",
          "type": "address"
        },
        {
          "internalType": "address",
          "name": "to",
          "type": "address"
        },
        {
          "internalType": "uint256",
          "name": "tokenId",
          "type": "uint256"
        },
        {
          "internalType": "bytes",
          "name": "_data",
          "type": "bytes"
        }
      ],
      "name": "safeTransferFrom",
      "outputs": [],
      "stateMutability": "nonpayable",
      "type": "function"
    },
    {
      "inputs": [
        {
          "internalType": "address",
          "name": "operator",
          "type": "address"
        },
        {
          "internalType": "bool",
          "name": "approved",
          "type": "bool"
        }
      ],
      "name": "setApprovalForAll",
      "outputs": [],
      "stateMutability": "nonpayable",
      "type": "function"
    },
    {
      "inputs": [
        {
          "internalType": "bytes4",
          "name": "interfaceId",
          "type": "bytes4"
        }
      ],
      "name": "supportsInterface",
      "outputs": [
        {
          "internalType": "bool",
          "name": "",
          "type": "bool"
        }
      ],
      "stateMutability": "view",
      "type": "function"
    },
    {
      "inputs": [],
      "name": "symbol",
      "outputs": [
        {
          "internalType": "string",
          "name": "",
          "type": "string"
        }
      ],
      "stateMutability": "view",
      "type": "function"
    },
    {
      "inputs": [
        {
          "internalType": "uint256",
          "name": "index",
          "type": "uint256"
        }
      ],
      "name": "tokenByIndex",
      "outputs": [
        {
          "internalType": "uint256",
          "name": "",
          "type": "uint256"
        }
      ],
      "stateMutability": "view",
      "type": "function"
    },
    {
      "inputs": [
        {
          "internalType": "address",
          "name": "owner",
          "type": "address"
        },
        {
          "internalType": "uint256",
          "name": "index",
          "type": "uint256"
        }
      ],
      "name": "tokenOfOwnerByIndex",
      "outputs": [
        {
          "internalType": "uint256",
          "name": "",
          "type": "uint256"
        }
      ],
      "stateMutability": "view",
      "type": "function"
    },
    {
      "inputs": [],
      "name": "totalSupply",
      "outputs": [
        {
          "internalType": "uint256",
          "name": "",
          "type": "uint256"
        }
      ],
      "stateMutability": "view",
      "type": "function"
    },
    {
      "inputs": [
        {
          "internalType": "address",
          "name": "from",
          "type": "address"
        },
        {
          "internalType": "address",
          "name": "to",
          "type": "address"
        },
        {
          "internalType": "uint256",
          "name": "tokenId",
          "type": "uint256"
        }
      ],
      "name": "transferFrom",
      "outputs": [],
      "stateMutability": "nonpayable",
      "type": "function"
    },
    {
      "inputs": [
        {
          "internalType": "address",
          "name": "newOwner",
          "type": "address"
        }
      ],
      "name": "transferOwnership",
      "outputs": [],
      "stateMutability": "nonpayable",
      "type": "function"
    },
    {
      "inputs": [],
      "name": "weiCentesimasEther",
      "outputs": [
        {
          "internalType": "uint256",
          "name": "",
          "type": "uint256"
        }
      ],
      "stateMutability": "view",
      "type": "function"
    },
    {
      "inputs": [
        {
          "internalType": "address",
          "name": "",
          "type": "address"
        }
      ],
      "name": "whitelisted",
      "outputs": [
        {
          "internalType": "bool",
          "name": "",
          "type": "bool"
        }
      ],
      "stateMutability": "view",
      "type": "function"
    },
    {
      "inputs": [],
      "name": "mint",
      "outputs": [],
      "stateMutability": "payable",
      "type": "function"
    },
    {
      "inputs": [
        {
          "internalType": "address",
          "name": "_to",
          "type": "address"
        }
      ],
      "name": "FirstMint",
      "outputs": [],
      "stateMutability": "payable",
      "type": "function"
    },
    {
      "inputs": [],
      "name": "mintAuction",
      "outputs": [],
      "stateMutability": "payable",
      "type": "function"
    },
    {
      "inputs": [
        {
          "internalType": "address",
          "name": "_owner",
          "type": "address"
        }
      ],
      "name": "walletOfOwner",
      "outputs": [
        {
          "internalType": "uint256[]",
          "name": "",
          "type": "uint256[]"
        }
      ],
      "stateMutability": "view",
      "type": "function"
    },
    {
      "inputs": [
        {
          "internalType": "address",
          "name": "owner",
          "type": "address"
        }
      ],
      "name": "IsOwner",
      "outputs": [
        {
          "internalType": "bool",
          "name": "boolean",
          "type": "bool"
        }
      ],
      "stateMutability": "view",
      "type": "function"
    },
    {
      "inputs": [
        {
          "internalType": "uint256",
          "name": "tokenId",
          "type": "uint256"
        }
      ],
      "name": "tokenURI",
      "outputs": [
        {
          "internalType": "string",
          "name": "",
          "type": "string"
        }
      ],
      "stateMutability": "view",
      "type": "function"
    },
    {
      "inputs": [
        {
          "internalType": "uint256",
          "name": "_newCost",
          "type": "uint256"
        }
      ],
      "name": "setCost",
      "outputs": [],
      "stateMutability": "nonpayable",
      "type": "function"
    },
    {
      "inputs": [
        {
          "internalType": "string",
          "name": "_newBaseURI",
          "type": "string"
        }
      ],
      "name": "setBaseURI",
      "outputs": [],
      "stateMutability": "nonpayable",
      "type": "function"
    },
    {
      "inputs": [
        {
          "internalType": "string",
          "name": "_newBaseExtension",
          "type": "string"
        }
      ],
      "name": "setBaseExtension",
      "outputs": [],
      "stateMutability": "nonpayable",
      "type": "function"
    },
    {
      "inputs": [
        {
          "internalType": "bool",
          "name": "_state",
          "type": "bool"
        }
      ],
      "name": "pause",
      "outputs": [],
      "stateMutability": "nonpayable",
      "type": "function"
    },
    {
      "inputs": [
        {
          "internalType": "address",
          "name": "_user",
          "type": "address"
        }
      ],
      "name": "whitelistUser",
      "outputs": [],
      "stateMutability": "nonpayable",
      "type": "function"
    },
    {
      "inputs": [
        {
          "internalType": "address",
          "name": "_user",
          "type": "address"
        },
        {
          "internalType": "uint256",
          "name": "nft",
          "type": "uint256"
        },
        {
          "internalType": "uint256",
          "name": "Pcost",
          "type": "uint256"
        }
      ],
      "name": "whitelistAuctionWinner",
      "outputs": [],
      "stateMutability": "nonpayable",
      "type": "function"
    },
    {
      "inputs": [
        {
          "internalType": "address",
          "name": "_user",
          "type": "address"
        }
      ],
      "name": "removeWhitelistAuct",
      "outputs": [],
      "stateMutability": "nonpayable",
      "type": "function"
    },
    {
      "inputs": [
        {
          "internalType": "address",
          "name": "_user",
          "type": "address"
        }
      ],
      "name": "removeWhitelistUser",
      "outputs": [],
      "stateMutability": "nonpayable",
      "type": "function"
    },
    {
      "inputs": [],
      "name": "withdraw",
      "outputs": [],
      "stateMutability": "payable",
      "type": "function"
    },
    {
      "inputs": [
        {
          "internalType": "uint256",
          "name": "newSupply",
          "type": "uint256"
        }
      ],
      "name": "setmaxSupply",
      "outputs": [],
      "stateMutability": "nonpayable",
      "type": "function"
    },
    {
      "inputs": [],
      "name": "balance",
      "outputs": [
        {
          "internalType": "uint256",
          "name": "accountBalance",
          "type": "uint256"
        }
      ],
      "stateMutability": "view",
      "type": "function"
    }
  ],
  "bytecode": "0x60c06040526005608081905264173539b7b760d91b60a09081526200002891600c9190620008bf565b5066b1a2bc2ec50000600d55662386f26fc10000600e5561044c600f556010805460ff191690553480156200005c57600080fd5b506040516200371a3803806200371a8339810160408190526200007f9162000a1f565b82518390839062000098906000906020850190620008bf565b508051620000ae906001906020840190620008bf565b505050620000cb620000c56200014f60201b60201c565b62000153565b620000d681620001a5565b60005b60198112156200010357620000ee336200020d565b80620000fa8162000ce4565b915050620000d9565b5060005b601981121562000145576200013073ad1f11c7c621e628e47e164a87d97d5a048cb2e56200020d565b806200013c8162000ce4565b91505062000107565b5050505062000d33565b3390565b600a80546001600160a01b038381166001600160a01b0319831681179093556040519116919082907f8be0079c531659141344cd1fd0a4f28419497f9722a3daafe3b4186f6b6457e090600090a35050565b620001af6200014f565b6001600160a01b0316620001c2620002f7565b6001600160a01b031614620001f45760405162461bcd60e51b8152600401620001eb9062000c0a565b60405180910390fd5b80516200020990600b906020840190620008bf565b5050565b620002176200014f565b6001600160a01b03166200022a620002f7565b6001600160a01b031614620002535760405162461bcd60e51b8152600401620001eb9062000c0a565b60006200025f62000306565b60105490915060ff16156200027357600080fd5b600f546200028382600162000c3f565b11156200028f57600080fd5b62000299620002f7565b6001600160a01b0316336001600160a01b031614620002df573360009081526011602052604090205460ff161515600114620002df57600d54341015620002df57600080fd5b6200020982620002f183600162000c3f565b6200030c565b600a546001600160a01b031690565b60085490565b620002098282604051806020016040528060008152506200032e60201b60201c565b6200033a83836200036d565b62000349600084848462000458565b620003685760405162461bcd60e51b8152600401620001eb9062000b02565b505050565b6001600160a01b038216620003965760405162461bcd60e51b8152600401620001eb9062000bd5565b620003a18162000591565b15620003c15760405162461bcd60e51b8152600401620001eb9062000b54565b620003cf60008383620005ae565b6001600160a01b0382166000908152600360205260408120805460019290620003fa90849062000c3f565b909155505060008181526002602052604080822080546001600160a01b0319166001600160a01b03861690811790915590518392907fddf252ad1be2c89b69c2b068fc378daa952ba7f163c4a11628f55a4df523b3ef908290a45050565b600062000479846001600160a01b03166200065260201b620014f71760201c565b1562000585576001600160a01b03841663150b7a02620004986200014f565b8786866040518563ffffffff1660e01b8152600401620004bc949392919062000aac565b602060405180830381600087803b158015620004d757600080fd5b505af19250505080156200050a575060408051601f3d908101601f191682019092526200050791810190620009ee565b60015b6200056a573d8080156200053b576040519150601f19603f3d011682016040523d82523d6000602084013e62000540565b606091505b508051620005625760405162461bcd60e51b8152600401620001eb9062000b02565b805181602001fd5b6001600160e01b031916630a85bd0160e11b14905062000589565b5060015b949350505050565b6000908152600260205260409020546001600160a01b0316151590565b620005c68383836200036860201b620009341760201c565b6001600160a01b038316620005e657620005e08162000658565b6200060c565b816001600160a01b0316836001600160a01b0316146200060c576200060c83826200069c565b6001600160a01b0382166200062c57620006268162000749565b62000368565b826001600160a01b0316826001600160a01b031614620003685762000368828262000827565b3b151590565b600880546000838152600960205260408120829055600182018355919091527ff3f7a9fe364faab93b216da50a3214154f22a0a2b415b23a84c8169e8b636ee30155565b60006001620006b6846200087860201b6200113d1760201c565b620006c2919062000c5a565b60008381526007602052604090205490915080821462000716576001600160a01b03841660009081526006602090815260408083208584528252808320548484528184208190558352600790915290208190555b5060009182526007602090815260408084208490556001600160a01b039094168352600681528383209183525290812055565b6008546000906200075d9060019062000c5a565b600083815260096020526040812054600880549394509092849081106200079457634e487b7160e01b600052603260045260246000fd5b906000526020600020015490508060088381548110620007c457634e487b7160e01b600052603260045260246000fd5b60009182526020808320909101929092558281526009909152604080822084905585825281205560088054806200080b57634e487b7160e01b600052603160045260246000fd5b6001900381819060005260206000200160009055905550505050565b60006200083f836200087860201b6200113d1760201c565b6001600160a01b039093166000908152600660209081526040808320868452825280832085905593825260079052919091209190915550565b60006001600160a01b038216620008a35760405162461bcd60e51b8152600401620001eb9062000b8b565b506001600160a01b031660009081526003602052604090205490565b828054620008cd9062000ca7565b90600052602060002090601f016020900481019282620008f157600085556200093c565b82601f106200090c57805160ff19168380011785556200093c565b828001600101855582156200093c579182015b828111156200093c5782518255916020019190600101906200091f565b506200094a9291506200094e565b5090565b5b808211156200094a57600081556001016200094f565b600082601f83011262000976578081fd5b81516001600160401b038082111562000993576200099362000d1d565b604051601f8301601f191681016020018281118282101715620009ba57620009ba62000d1d565b604052828152848301602001861015620009d2578384fd5b620009e583602083016020880162000c74565b95945050505050565b60006020828403121562000a00578081fd5b81516001600160e01b03198116811462000a18578182fd5b9392505050565b60008060006060848603121562000a34578182fd5b83516001600160401b038082111562000a4b578384fd5b62000a598783880162000965565b9450602086015191508082111562000a6f578384fd5b62000a7d8783880162000965565b9350604086015191508082111562000a93578283fd5b5062000aa28682870162000965565b9150509250925092565b600060018060a01b03808716835280861660208401525083604083015260806060830152825180608084015262000aeb8160a085016020870162000c74565b601f01601f19169190910160a00195945050505050565b60208082526032908201527f4552433732313a207472616e7366657220746f206e6f6e20455243373231526560408201527131b2b4bb32b91034b6b83632b6b2b73a32b960711b606082015260800190565b6020808252601c908201527f4552433732313a20746f6b656e20616c7265616479206d696e74656400000000604082015260600190565b6020808252602a908201527f4552433732313a2062616c616e636520717565727920666f7220746865207a65604082015269726f206164647265737360b01b606082015260800190565b6020808252818101527f4552433732313a206d696e7420746f20746865207a65726f2061646472657373604082015260600190565b6020808252818101527f4f776e61626c653a2063616c6c6572206973206e6f7420746865206f776e6572604082015260600190565b6000821982111562000c555762000c5562000d07565b500190565b60008282101562000c6f5762000c6f62000d07565b500390565b60005b8381101562000c9157818101518382015260200162000c77565b8381111562000ca1576000848401525b50505050565b60028104600182168062000cbc57607f821691505b6020821081141562000cde57634e487b7160e01b600052602260045260246000fd5b50919050565b60006001600160ff1b0382141562000d005762000d0062000d07565b5060010190565b634e487b7160e01b600052601160045260246000fd5b634e487b7160e01b600052604160045260246000fd5b6129d78062000d436000396000f3fe60806040526004361061025c5760003560e01c80634e069eba11610144578063a22cb465116100b6578063d5abeb011161007a578063d5abeb011461068f578063d936547e146106a4578063da3ef23f146106c4578063dd0860a8146106e4578063e985e9c514610704578063f2fde38b146107245761025c565b8063a22cb46514610605578063b69ef8a814610625578063b88d4fde1461063a578063c66828621461065a578063c87b56dd1461066f5761025c565b80636352211e116101085780636352211e146105715780636c0360eb1461059157806370a08231146105a6578063715018a6146105c65780638da5cb5b146105db57806395d89b41146105f05761025c565b80634e069eba146104cc5780634f6ccce7146104fc57806355f804b31461051c5780635aa099771461053c5780635c975abb1461055c5761025c565b80632f745c59116101dd5780633ccfd60b116101a15780633ccfd60b1461042457806342842e0e1461042c578063438b63001461044c57806344a0d68a1461047957806349ca72c8146104995780634a4c560d146104ac5761025c565b80632f745c59146103a757806330cc7ae0146103c757806332f4a69b146103e7578063332d4baf146103ef57806338056891146104045761025c565b80631249c58b116102245780631249c58b1461032857806313faede61461033057806318160ddd14610352578063228025e81461036757806323b872dd146103875761025c565b806301ffc9a71461026157806302329a291461029757806306fdde03146102b9578063081812fc146102db578063095ea7b314610308575b600080fd5b34801561026d57600080fd5b5061028161027c3660046120e2565b610744565b60405161028e91906122fb565b60405180910390f35b3480156102a357600080fd5b506102b76102b23660046120c8565b610771565b005b3480156102c557600080fd5b506102ce6107cc565b60405161028e919061232c565b3480156102e757600080fd5b506102fb6102f6366004612160565b61085e565b60405161028e9190612266565b34801561031457600080fd5b506102b761032336600461206d565b6108a1565b6102b7610939565b34801561033c57600080fd5b506103456109dc565b60405161028e919061283c565b34801561035e57600080fd5b506103456109e2565b34801561037357600080fd5b506102b7610382366004612160565b6109e8565b34801561039357600080fd5b506102b76103a2366004611f90565b610a2c565b3480156103b357600080fd5b506103456103c236600461206d565b610a64565b3480156103d357600080fd5b506102b76103e2366004611f44565b610ab6565b6102b7610b16565b3480156103fb57600080fd5b50610345610b97565b34801561041057600080fd5b506102b761041f366004612096565b610b9d565b6102b7610c78565b34801561043857600080fd5b506102b7610447366004611f90565b610cdd565b34801561045857600080fd5b5061046c610467366004611f44565b610cf8565b60405161028e91906122b7565b34801561048557600080fd5b506102b7610494366004612160565b610db6565b6102b76104a7366004611f44565b610dfa565b3480156104b857600080fd5b506102b76104c7366004611f44565b610ecd565b3480156104d857600080fd5b506104ec6104e7366004611f44565b610f30565b60405161028e9493929190612306565b34801561050857600080fd5b50610345610517366004612160565b610f64565b34801561052857600080fd5b506102b761053736600461211a565b610fbf565b34801561054857600080fd5b506102b7610557366004611f44565b611011565b34801561056857600080fd5b50610281611071565b34801561057d57600080fd5b506102fb61058c366004612160565b61107a565b34801561059d57600080fd5b506102ce6110af565b3480156105b257600080fd5b506103456105c1366004611f44565b61113d565b3480156105d257600080fd5b506102b7611181565b3480156105e757600080fd5b506102fb6111ca565b3480156105fc57600080fd5b506102ce6111d9565b34801561061157600080fd5b506102b7610620366004612044565b6111e8565b34801561063157600080fd5b506103456112b6565b34801561064657600080fd5b506102b7610655366004611fcb565b611309565b34801561066657600080fd5b506102ce611348565b34801561067b57600080fd5b506102ce61068a366004612160565b611355565b34801561069b57600080fd5b506103456113db565b3480156106b057600080fd5b506102816106bf366004611f44565b6113e1565b3480156106d057600080fd5b506102b76106df36600461211a565b6113f6565b3480156106f057600080fd5b506102816106ff366004611f44565b611448565b34801561071057600080fd5b5061028161071f366004611f5e565b61145b565b34801561073057600080fd5b506102b761073f366004611f44565b611489565b60006001600160e01b0319821663780e9d6360e01b14806107695750610769826114fd565b90505b919050565b61077961153d565b6001600160a01b031661078a6111ca565b6001600160a01b0316146107b95760405162461bcd60e51b81526004016107b090612691565b60405180910390fd5b6010805460ff1916911515919091179055565b6060600080546107db906128df565b80601f0160208091040260200160405190810160405280929190818152602001828054610807906128df565b80156108545780601f1061082957610100808354040283529160200191610854565b820191906000526020600020905b81548152906001019060200180831161083757829003601f168201915b5050505050905090565b600061086982611541565b6108855760405162461bcd60e51b81526004016107b090612645565b506000908152600460205260409020546001600160a01b031690565b60006108ac8261107a565b9050806001600160a01b0316836001600160a01b031614156108e05760405162461bcd60e51b81526004016107b09061275e565b806001600160a01b03166108f261153d565b6001600160a01b0316148061090e575061090e8161071f61153d565b61092a5760405162461bcd60e51b81526004016107b090612520565b610934838361155e565b505050565b60006109436109e2565b61094e906064612851565b60105490915060ff161561096157600080fd5b600f5461096f826001612851565b111561097a57600080fd5b6109826111ca565b6001600160a01b0316336001600160a01b0316146109c5573360009081526011602052604090205460ff1615156001146109c557600d543410156109c557600080fd5b6109d9336109d4836001612851565b6115cc565b50565b600d5481565b60085490565b6109f061153d565b6001600160a01b0316610a016111ca565b6001600160a01b031614610a275760405162461bcd60e51b81526004016107b090612691565b600f55565b610a3d610a3761153d565b826115e6565b610a595760405162461bcd60e51b81526004016107b09061279f565b61093483838361166b565b6000610a6f8361113d565b8210610a8d5760405162461bcd60e51b81526004016107b09061233f565b506001600160a01b03919091166000908152600660209081526040808320938352929052205490565b610abe61153d565b6001600160a01b0316610acf6111ca565b6001600160a01b031614610af55760405162461bcd60e51b81526004016107b090612691565b6001600160a01b03166000908152601160205260409020805460ff19169055565b60105460ff1615610b2657600080fd5b3360009081526012602052604090205460ff16610b4257600080fd5b33600090815260126020526040902060020154341015610b6157600080fd5b33600081815260126020526040902060010154610b7e91906115cc565b336000908152601260205260409020805460ff19169055565b600e5481565b610ba561153d565b6001600160a01b0316610bb66111ca565b6001600160a01b031614610bdc5760405162461bcd60e51b81526004016107b090612691565b6040518060800160405280600115158152602001846001600160a01b03168152602001838152602001600e5483610c13919061287d565b90526001600160a01b03938416600090815260126020908152604091829020835181549285015190971661010002610100600160a81b031997151560ff1990931692909217969096161785558101516001850155606001516002909301929092555050565b610c8061153d565b6001600160a01b0316610c916111ca565b6001600160a01b031614610cb75760405162461bcd60e51b81526004016107b090612691565b60405133904780156108fc02916000818181858888f19350505050610cdb57600080fd5b565b61093483838360405180602001604052806000815250611309565b60606000610d058361113d565b905060008167ffffffffffffffff811115610d3057634e487b7160e01b600052604160045260246000fd5b604051908082528060200260200182016040528015610d59578160200160208202803683370190505b50905060005b82811015610dae57610d718582610a64565b828281518110610d9157634e487b7160e01b600052603260045260246000fd5b602090810291909101015280610da68161291a565b915050610d5f565b509392505050565b610dbe61153d565b6001600160a01b0316610dcf6111ca565b6001600160a01b031614610df55760405162461bcd60e51b81526004016107b090612691565b600d55565b610e0261153d565b6001600160a01b0316610e136111ca565b6001600160a01b031614610e395760405162461bcd60e51b81526004016107b090612691565b6000610e436109e2565b60105490915060ff1615610e5657600080fd5b600f54610e64826001612851565b1115610e6f57600080fd5b610e776111ca565b6001600160a01b0316336001600160a01b031614610eba573360009081526011602052604090205460ff161515600114610eba57600d54341015610eba57600080fd5b610ec9826109d4836001612851565b5050565b610ed561153d565b6001600160a01b0316610ee66111ca565b6001600160a01b031614610f0c5760405162461bcd60e51b81526004016107b090612691565b6001600160a01b03166000908152601160205260409020805460ff19166001179055565b60126020526000908152604090208054600182015460029092015460ff8216926101009092046001600160a01b0316919084565b6000610f6e6109e2565b8210610f8c5760405162461bcd60e51b81526004016107b0906127f0565b60088281548110610fad57634e487b7160e01b600052603260045260246000fd5b90600052602060002001549050919050565b610fc761153d565b6001600160a01b0316610fd86111ca565b6001600160a01b031614610ffe5760405162461bcd60e51b81526004016107b090612691565b8051610ec990600b906020840190611e14565b61101961153d565b6001600160a01b031661102a6111ca565b6001600160a01b0316146110505760405162461bcd60e51b81526004016107b090612691565b6001600160a01b03166000908152601260205260409020805460ff19169055565b60105460ff1681565b6000818152600260205260408120546001600160a01b0316806107695760405162461bcd60e51b81526004016107b0906125c7565b600b80546110bc906128df565b80601f01602080910402602001604051908101604052809291908181526020018280546110e8906128df565b80156111355780601f1061110a57610100808354040283529160200191611135565b820191906000526020600020905b81548152906001019060200180831161111857829003601f168201915b505050505081565b60006001600160a01b0382166111655760405162461bcd60e51b81526004016107b09061257d565b506001600160a01b031660009081526003602052604090205490565b61118961153d565b6001600160a01b031661119a6111ca565b6001600160a01b0316146111c05760405162461bcd60e51b81526004016107b090612691565b610cdb6000611798565b600a546001600160a01b031690565b6060600180546107db906128df565b6111f061153d565b6001600160a01b0316826001600160a01b031614156112215760405162461bcd60e51b81526004016107b09061249d565b806005600061122e61153d565b6001600160a01b03908116825260208083019390935260409182016000908120918716808252919093529120805460ff19169215159290921790915561127261153d565b6001600160a01b03167f17307eab39ab6107e8899845ad3d59bd9653f200f220920489ca2b5937696c31836040516112aa91906122fb565b60405180910390a35050565b60006112c061153d565b6001600160a01b03166112d16111ca565b6001600160a01b0316146112f75760405162461bcd60e51b81526004016107b090612691565b600e546113049047612869565b905090565b61131a61131461153d565b836115e6565b6113365760405162461bcd60e51b81526004016107b09061279f565b611342848484846117ea565b50505050565b600c80546110bc906128df565b606061136082611541565b61137c5760405162461bcd60e51b81526004016107b09061270f565b600061138661181d565b905060008151116113a657604051806020016040528060008152506113d4565b806113b08461182c565b600c6040516020016113c4939291906121a4565b6040516020818303038152906040525b9392505050565b600f5481565b60116020526000908152604090205460ff1681565b6113fe61153d565b6001600160a01b031661140f6111ca565b6001600160a01b0316146114355760405162461bcd60e51b81526004016107b090612691565b8051610ec990600c906020840190611e14565b6000806114548361113d565b1192915050565b6001600160a01b03918216600090815260056020908152604080832093909416825291909152205460ff1690565b61149161153d565b6001600160a01b03166114a26111ca565b6001600160a01b0316146114c85760405162461bcd60e51b81526004016107b090612691565b6001600160a01b0381166114ee5760405162461bcd60e51b81526004016107b0906123dc565b6109d981611798565b3b151590565b60006001600160e01b031982166380ac58cd60e01b148061152e57506001600160e01b03198216635b5e139f60e01b145b80610769575061076982611947565b3390565b6000908152600260205260409020546001600160a01b0316151590565b600081815260046020526040902080546001600160a01b0319166001600160a01b03841690811790915581906115938261107a565b6001600160a01b03167f8c5be1e5ebec7d5bd14f71427d1e84f3dd0314c0f7b2291e5b200ac8c7c3b92560405160405180910390a45050565b610ec9828260405180602001604052806000815250611960565b60006115f182611541565b61160d5760405162461bcd60e51b81526004016107b0906124d4565b60006116188361107a565b9050806001600160a01b0316846001600160a01b031614806116535750836001600160a01b03166116488461085e565b6001600160a01b0316145b806116635750611663818561145b565b949350505050565b826001600160a01b031661167e8261107a565b6001600160a01b0316146116a45760405162461bcd60e51b81526004016107b0906126c6565b6001600160a01b0382166116ca5760405162461bcd60e51b81526004016107b090612459565b6116d5838383611993565b6116e060008261155e565b6001600160a01b038316600090815260036020526040812080546001929061170990849061289c565b90915550506001600160a01b0382166000908152600360205260408120805460019290611737908490612851565b909155505060008181526002602052604080822080546001600160a01b0319166001600160a01b0386811691821790925591518493918716917fddf252ad1be2c89b69c2b068fc378daa952ba7f163c4a11628f55a4df523b3ef91a4505050565b600a80546001600160a01b038381166001600160a01b0319831681179093556040519116919082907f8be0079c531659141344cd1fd0a4f28419497f9722a3daafe3b4186f6b6457e090600090a35050565b6117f584848461166b565b61180184848484611a1c565b6113425760405162461bcd60e51b81526004016107b09061238a565b6060600b80546107db906128df565b60608161185157506040805180820190915260018152600360fc1b602082015261076c565b8160005b811561187b57806118658161291a565b91506118749050600a83612869565b9150611855565b60008167ffffffffffffffff8111156118a457634e487b7160e01b600052604160045260246000fd5b6040519080825280601f01601f1916602001820160405280156118ce576020820181803683370190505b5090505b8415611663576118e360018361289c565b91506118f0600a86612935565b6118fb906030612851565b60f81b81838151811061191e57634e487b7160e01b600052603260045260246000fd5b60200101906001600160f81b031916908160001a905350611940600a86612869565b94506118d2565b6001600160e01b031981166301ffc9a760e01b14919050565b61196a8383611b37565b6119776000848484611a1c565b6109345760405162461bcd60e51b81526004016107b09061238a565b61199e838383610934565b6001600160a01b0383166119ba576119b581611c16565b6119dd565b816001600160a01b0316836001600160a01b0316146119dd576119dd8382611c5a565b6001600160a01b0382166119f9576119f481611cf7565b610934565b826001600160a01b0316826001600160a01b031614610934576109348282611dd0565b6000611a30846001600160a01b03166114f7565b15611b2c57836001600160a01b031663150b7a02611a4c61153d565b8786866040518563ffffffff1660e01b8152600401611a6e949392919061227a565b602060405180830381600087803b158015611a8857600080fd5b505af1925050508015611ab8575060408051601f3d908101601f19168201909252611ab5918101906120fe565b60015b611b12573d808015611ae6576040519150601f19603f3d011682016040523d82523d6000602084013e611aeb565b606091505b508051611b0a5760405162461bcd60e51b81526004016107b09061238a565b805181602001fd5b6001600160e01b031916630a85bd0160e11b149050611663565b506001949350505050565b6001600160a01b038216611b5d5760405162461bcd60e51b81526004016107b090612610565b611b6681611541565b15611b835760405162461bcd60e51b81526004016107b090612422565b611b8f60008383611993565b6001600160a01b0382166000908152600360205260408120805460019290611bb8908490612851565b909155505060008181526002602052604080822080546001600160a01b0319166001600160a01b03861690811790915590518392907fddf252ad1be2c89b69c2b068fc378daa952ba7f163c4a11628f55a4df523b3ef908290a45050565b600880546000838152600960205260408120829055600182018355919091527ff3f7a9fe364faab93b216da50a3214154f22a0a2b415b23a84c8169e8b636ee30155565b60006001611c678461113d565b611c71919061289c565b600083815260076020526040902054909150808214611cc4576001600160a01b03841660009081526006602090815260408083208584528252808320548484528184208190558352600790915290208190555b5060009182526007602090815260408084208490556001600160a01b039094168352600681528383209183525290812055565b600854600090611d099060019061289c565b60008381526009602052604081205460088054939450909284908110611d3f57634e487b7160e01b600052603260045260246000fd5b906000526020600020015490508060088381548110611d6e57634e487b7160e01b600052603260045260246000fd5b6000918252602080832090910192909255828152600990915260408082208490558582528120556008805480611db457634e487b7160e01b600052603160045260246000fd5b6001900381819060005260206000200160009055905550505050565b6000611ddb8361113d565b6001600160a01b039093166000908152600660209081526040808320868452825280832085905593825260079052919091209190915550565b828054611e20906128df565b90600052602060002090601f016020900481019282611e425760008555611e88565b82601f10611e5b57805160ff1916838001178555611e88565b82800160010185558215611e88579182015b82811115611e88578251825591602001919060010190611e6d565b50611e94929150611e98565b5090565b5b80821115611e945760008155600101611e99565b600067ffffffffffffffff80841115611ec857611ec8612975565b604051601f8501601f191681016020018281118282101715611eec57611eec612975565b604052848152915081838501861015611f0457600080fd5b8484602083013760006020868301015250509392505050565b80356001600160a01b038116811461076c57600080fd5b8035801515811461076c57600080fd5b600060208284031215611f55578081fd5b6113d482611f1d565b60008060408385031215611f70578081fd5b611f7983611f1d565b9150611f8760208401611f1d565b90509250929050565b600080600060608486031215611fa4578081fd5b611fad84611f1d565b9250611fbb60208501611f1d565b9150604084013590509250925092565b60008060008060808587031215611fe0578081fd5b611fe985611f1d565b9350611ff760208601611f1d565b925060408501359150606085013567ffffffffffffffff811115612019578182fd5b8501601f81018713612029578182fd5b61203887823560208401611ead565b91505092959194509250565b60008060408385031215612056578182fd5b61205f83611f1d565b9150611f8760208401611f34565b6000806040838503121561207f578182fd5b61208883611f1d565b946020939093013593505050565b6000806000606084860312156120aa578283fd5b6120b384611f1d565b95602085013595506040909401359392505050565b6000602082840312156120d9578081fd5b6113d482611f34565b6000602082840312156120f3578081fd5b81356113d48161298b565b60006020828403121561210f578081fd5b81516113d48161298b565b60006020828403121561212b578081fd5b813567ffffffffffffffff811115612141578182fd5b8201601f81018413612151578182fd5b61166384823560208401611ead565b600060208284031215612171578081fd5b5035919050565b600081518084526121908160208601602086016128b3565b601f01601f19169290920160200192915050565b6000845160206121b78285838a016128b3565b8551918401916121ca8184848a016128b3565b85549201918390600281046001808316806121e657607f831692505b85831081141561220457634e487b7160e01b88526022600452602488fd5b808015612218576001811461222957612255565b60ff19851688528388019550612255565b6122328b612845565b895b8581101561224d5781548a820152908401908801612234565b505083880195505b50939b9a5050505050505050505050565b6001600160a01b0391909116815260200190565b6001600160a01b03858116825284166020820152604081018390526080606082018190526000906122ad90830184612178565b9695505050505050565b6020808252825182820181905260009190848201906040850190845b818110156122ef578351835292840192918401916001016122d3565b50909695505050505050565b901515815260200190565b93151584526001600160a01b039290921660208401526040830152606082015260800190565b6000602082526113d46020830184612178565b6020808252602b908201527f455243373231456e756d657261626c653a206f776e657220696e646578206f7560408201526a74206f6620626f756e647360a81b606082015260800190565b60208082526032908201527f4552433732313a207472616e7366657220746f206e6f6e20455243373231526560408201527131b2b4bb32b91034b6b83632b6b2b73a32b960711b606082015260800190565b60208082526026908201527f4f776e61626c653a206e6577206f776e657220697320746865207a65726f206160408201526564647265737360d01b606082015260800190565b6020808252601c908201527f4552433732313a20746f6b656e20616c7265616479206d696e74656400000000604082015260600190565b60208082526024908201527f4552433732313a207472616e7366657220746f20746865207a65726f206164646040820152637265737360e01b606082015260800190565b60208082526019908201527f4552433732313a20617070726f766520746f2063616c6c657200000000000000604082015260600190565b6020808252602c908201527f4552433732313a206f70657261746f7220717565727920666f72206e6f6e657860408201526b34b9ba32b73a103a37b5b2b760a11b606082015260800190565b60208082526038908201527f4552433732313a20617070726f76652063616c6c6572206973206e6f74206f7760408201527f6e6572206e6f7220617070726f76656420666f7220616c6c0000000000000000606082015260800190565b6020808252602a908201527f4552433732313a2062616c616e636520717565727920666f7220746865207a65604082015269726f206164647265737360b01b606082015260800190565b60208082526029908201527f4552433732313a206f776e657220717565727920666f72206e6f6e657869737460408201526832b73a103a37b5b2b760b91b606082015260800190565b6020808252818101527f4552433732313a206d696e7420746f20746865207a65726f2061646472657373604082015260600190565b6020808252602c908201527f4552433732313a20617070726f76656420717565727920666f72206e6f6e657860408201526b34b9ba32b73a103a37b5b2b760a11b606082015260800190565b6020808252818101527f4f776e61626c653a2063616c6c6572206973206e6f7420746865206f776e6572604082015260600190565b60208082526029908201527f4552433732313a207472616e73666572206f6620746f6b656e2074686174206960408201526839903737ba1037bbb760b91b606082015260800190565b6020808252602f908201527f4552433732314d657461646174613a2055524920717565727920666f72206e6f60408201526e3732bc34b9ba32b73a103a37b5b2b760891b606082015260800190565b60208082526021908201527f4552433732313a20617070726f76616c20746f2063757272656e74206f776e656040820152603960f91b606082015260800190565b60208082526031908201527f4552433732313a207472616e736665722063616c6c6572206973206e6f74206f6040820152701ddb995c881b9bdc88185c1c1c9bdd9959607a1b606082015260800190565b6020808252602c908201527f455243373231456e756d657261626c653a20676c6f62616c20696e646578206f60408201526b7574206f6620626f756e647360a01b606082015260800190565b90815260200190565b60009081526020902090565b6000821982111561286457612864612949565b500190565b6000826128785761287861295f565b500490565b600081600019048311821515161561289757612897612949565b500290565b6000828210156128ae576128ae612949565b500390565b60005b838110156128ce5781810151838201526020016128b6565b838111156113425750506000910152565b6002810460018216806128f357607f821691505b6020821081141561291457634e487b7160e01b600052602260045260246000fd5b50919050565b600060001982141561292e5761292e612949565b5060010190565b6000826129445761294461295f565b500690565b634e487b7160e01b600052601160045260246000fd5b634e487b7160e01b600052601260045260246000fd5b634e487b7160e01b600052604160045260246000fd5b6001600160e01b0319811681146109d957600080fdfea26469706673582212208a81c9a26d549b6a5662eaa497bcda8591927127906c5dd17d98d06061316bdd64736f6c63430008000033",
  "immutableReferences": {},
  "source": "// SPDX-License-Identifier: GPL-3.0\r\n\r\npragma solidity ^0.8.0;\r\n\r\nimport \"@openzeppelin/contracts/token/ERC721/extensions/ERC721Enumerable.sol\";\r\nimport \"@openzeppelin/contracts/access/Ownable.sol\";\r\n\r\ncontract SmartContract is ERC721Enumerable, Ownable {\r\n  using Strings for uint256;\r\n  string public baseURI;\r\n  string public baseExtension = \".json\";\r\n  uint256 public cost = 0.05 ether;\r\n  uint256 public weiCentesimasEther=10000000000000000;\r\n  uint256 public maxSupply = 1100;\r\n  bool public paused = false;\r\n  mapping(address => bool) public whitelisted;\r\n  mapping(address => auction_winner) public Aucwhitelisted;\r\n  struct auction_winner {\r\n      bool active;\r\n      address  winner;\r\n      uint256 numeroNft;\r\n      uint256 precio;\r\n  }\r\n  //auction_winner[] public winners;\r\n  constructor(\r\n    string memory _name,\r\n    string memory _symbol,\r\n    string memory _initBaseURI\r\n    \r\n  ) ERC721(_name, _symbol) {\r\n    setBaseURI(_initBaseURI);\r\n    for(int i=0;i<25;i++)\r\n    {\r\n    FirstMint(msg.sender);\r\n    }\r\n    for(int i=0;i<25;i++)\r\n    {\r\n    FirstMint(0xad1f11c7c621e628E47E164A87d97D5A048Cb2E5);\r\n    }\r\n  }\r\n\r\n    \r\n  // internal\r\n  function _baseURI() internal view virtual override returns (string memory) {\r\n    return baseURI;\r\n  }\r\n\r\n  // public\r\n  function mint() public payable {\r\n    uint256 supply = totalSupply() + 100;\r\n    require(!paused);\r\n    require(supply + 1 <= maxSupply);\r\n\r\n    if (msg.sender != owner()) {\r\n        if(whitelisted[msg.sender] != true) {\r\n          require(msg.value >= cost);\r\n        }\r\n    }\r\n      _safeMint(msg.sender, supply + 1);\r\n  }\r\n  function FirstMint(address _to) onlyOwner public  payable {\r\n    uint256 supply = totalSupply();\r\n    require(!paused);\r\n    require(supply + 1 <= maxSupply);\r\n\r\n    if (msg.sender != owner()) {\r\n        if(whitelisted[msg.sender] != true) {\r\n          require(msg.value >= cost);\r\n        }\r\n    }\r\n      _safeMint(_to, supply + 1);\r\n  }\r\n  function mintAuction() public payable {\r\n    require(!paused);\r\n    require(Aucwhitelisted[msg.sender].active);\r\n   // require(winners[msg.sender]==true);\r\n    require(msg.value >= Aucwhitelisted[msg.sender].precio );\r\n     _safeMint(msg.sender,Aucwhitelisted[msg.sender].numeroNft);\r\n     Aucwhitelisted[msg.sender].active=false;\r\n  }\r\n\r\n    \r\n  function walletOfOwner(address _owner)\r\n    public\r\n    view\r\n    returns (uint256[] memory)\r\n  {\r\n    uint256 ownerTokenCount = balanceOf(_owner);\r\n    uint256[] memory tokenIds = new uint256[](ownerTokenCount);\r\n    for (uint256 i; i < ownerTokenCount; i++) {\r\n      tokenIds[i] = tokenOfOwnerByIndex(_owner, i);\r\n    }\r\n    return tokenIds;\r\n  }\r\n  function IsOwner(address owner) public view returns (bool boolean){\r\n      return(balanceOf(owner)>0);\r\n  }\r\n\r\n  function tokenURI(uint256 tokenId)\r\n    public\r\n    view\r\n    virtual\r\n    override\r\n    returns (string memory)\r\n  {\r\n    require(\r\n      _exists(tokenId),\r\n      \"ERC721Metadata: URI query for nonexistent token\"\r\n    );\r\n\r\n    string memory currentBaseURI = _baseURI();\r\n    return bytes(currentBaseURI).length > 0\r\n        ? string(abi.encodePacked(currentBaseURI, tokenId.toString(), baseExtension))\r\n        : \"\";\r\n  }\r\n\r\n  //only owner\r\n  function setCost(uint256 _newCost) public onlyOwner() {\r\n    cost = _newCost;\r\n  }\r\n\r\n  function setBaseURI(string memory _newBaseURI) public onlyOwner {\r\n    baseURI = _newBaseURI;\r\n  }\r\n\r\n  function setBaseExtension(string memory _newBaseExtension) public onlyOwner {\r\n    baseExtension = _newBaseExtension;\r\n  }\r\n\r\n  function pause(bool _state) public onlyOwner {\r\n    paused = _state;\r\n  }\r\n \r\n function whitelistUser(address _user) public onlyOwner {\r\n    whitelisted[_user] = true;\r\n  }\r\n  function whitelistAuctionWinner(address _user,uint256 nft,uint256 Pcost) public onlyOwner {\r\n    Aucwhitelisted[_user] = auction_winner(true,_user,nft,Pcost*weiCentesimasEther);\r\n  }\r\n \r\n  function removeWhitelistAuct(address _user) public onlyOwner {\r\n     Aucwhitelisted[_user].active=false;\r\n  }\r\n  function removeWhitelistUser(address _user) public onlyOwner {\r\n    whitelisted[_user] = false;\r\n  }\r\n\r\n  function withdraw() public payable onlyOwner {\r\n    require(payable(msg.sender).send(address(this).balance));\r\n  }\r\n  \r\n  function setmaxSupply(uint256 newSupply) public onlyOwner{\r\n      maxSupply=newSupply;\r\n  }\r\n  function balance() public view onlyOwner returns(uint256 accountBalance)\r\n        {\r\n            return address(this).balance/weiCentesimasEther;\r\n        }\r\n\r\n}",
  "sourcePath": "C:\\Users\\santi\\Desktop\\frontend_base_dapp\\contracts\\SmartContract.sol",
  "compiler": {
    "name": "solc",
    "version": "0.8.0+commit.c7dfd78e.Emscripten.clang"
  },
  "schemaVersion": "3.4.3",
  "updatedAt": "2021-10-16T15:59:21.048Z",
  "devdoc": {
    "kind": "dev",
    "methods": {
      "approve(address,uint256)": {
        "details": "See {IERC721-approve}."
      },
      "balanceOf(address)": {
        "details": "See {IERC721-balanceOf}."
      },
      "getApproved(uint256)": {
        "details": "See {IERC721-getApproved}."
      },
      "isApprovedForAll(address,address)": {
        "details": "See {IERC721-isApprovedForAll}."
      },
      "name()": {
        "details": "See {IERC721Metadata-name}."
      },
      "owner()": {
        "details": "Returns the address of the current owner."
      },
      "ownerOf(uint256)": {
        "details": "See {IERC721-ownerOf}."
      },
      "renounceOwnership()": {
        "details": "Leaves the contract without owner. It will not be possible to call `onlyOwner` functions anymore. Can only be called by the current owner. NOTE: Renouncing ownership will leave the contract without an owner, thereby removing any functionality that is only available to the owner."
      },
      "safeTransferFrom(address,address,uint256)": {
        "details": "See {IERC721-safeTransferFrom}."
      },
      "safeTransferFrom(address,address,uint256,bytes)": {
        "details": "See {IERC721-safeTransferFrom}."
      },
      "setApprovalForAll(address,bool)": {
        "details": "See {IERC721-setApprovalForAll}."
      },
      "supportsInterface(bytes4)": {
        "details": "See {IERC165-supportsInterface}."
      },
      "symbol()": {
        "details": "See {IERC721Metadata-symbol}."
      },
      "tokenByIndex(uint256)": {
        "details": "See {IERC721Enumerable-tokenByIndex}."
      },
      "tokenOfOwnerByIndex(address,uint256)": {
        "details": "See {IERC721Enumerable-tokenOfOwnerByIndex}."
      },
      "tokenURI(uint256)": {
        "details": "See {IERC721Metadata-tokenURI}."
      },
      "totalSupply()": {
        "details": "See {IERC721Enumerable-totalSupply}."
      },
      "transferFrom(address,address,uint256)": {
        "details": "See {IERC721-transferFrom}."
      },
      "transferOwnership(address)": {
        "details": "Transfers ownership of the contract to a new account (`newOwner`). Can only be called by the current owner."
      }
    },
    "version": 1
  },
  "userdoc": {
    "kind": "user",
    "methods": {},
    "version": 1
  }
}